:020000040800F2
:1000000088060020A9010008B1010008B30100081A
:1000100000000000000000000000000000000000E0
:10002000000000000000000000000000B501000812
:100030000000000000000000B7010008A91B000834
:10004000BB010008BB010008BB010008BB010008A0
:10005000BB010008BB010008BB010008BB01000890
:10006000BB010008BB010008BB010008BB01000880
:10007000BB010008BB010008BB010008BB01000870
:10008000BB010008BB010008BB0100080000000024
:10009000BB010008BB010008BB010008BB01000850
:1000A000BB010008BB010008BB010008BD1B000824
:1000B000E91B0008BB010008BB010008BB010008E8
:1000C00000F002F800F061F812A030C808382418D7
:1000D0002D18AC4201D100F058F80FCCA246AB4627
:1000E0000CA730CF2D1B083F3F197C427F1E544484
:1000F0002D090426F441641EAC4201D300F045F8FA
:100100000126334200D0FB1A3343984754465D46DC
:10011000DFE700000425000024250000103A02D388
:1001200078C878C1FAD8520701D330C830C101D598
:1001300004680C6070470000704700000023002432
:1001400000250026103A01D378C1FBD8520700D30E
:1001500030C100D50B60704710B5662902D102F09E
:10016000C9F910BD752902D100F04EF810BD00206C
:1001700010BD1FB500F074FF04000020002102F044
:10018000A3F9E0601FBD10B510BD01F01FFB1146C3
:10019000FFF7EFFF01F046FD01F037FB03B4FFF777
:1001A000F2FF03BC01F092FB074880470748004775
:1001B000FEE7FEE7FEE7FEE7FEE7FEE70448054947
:1001C000054A064B70470000B91B0008C100000833
:1001D0008800002088060020880200208802002075
:1001E0000FB41CB5074B06AA7B44694600900598DE
:1001F00000F009FF0020694600F018FF1CBC08BC95
:1002000004B01847410E0000F7B5002575291068A5
:10021000009914A611D0C046C046002802DA404218
:1002200011A608E0009909688A0701D50FA602E027
:10023000490704D50EA6012501E0C046C046009F2F
:100240000024243704E000F0F6FE30313955641CF8
:100250000028F8D12B4632462146009800F06CFC6D
:10026000FEBD0000000000002D0000002B0000007B
:1002700020000000F3B50446002081B02062204633
:10028000E168884700287AD0252802D06268A168F2
:1002900071E0E16820460025884706460020E061BD
:1002A0000746A0612A2E0AD0304602F005F9002840
:1002B00027D0B8000019303E0090866119E00298FE
:1002C000BA00121902C8916102902046E16888477D
:1002D000012F064617D1E06900281FDA2020854348
:1002E0001CE000980A218069484300998019303841
:1002F00088612046E1688847064602F0DDF800285C
:10030000EFD1012F0AD02E2E08D12046E168884770
:100310000646202005437F1C022FC3DBA06900286E
:1003200003DA4042A06101200543E80701D0102014
:100330008543002E23D030464138192803D80120A8
:10034000C00205432036204625603146029A1546F4
:10035000FFF702FF00280BD0012806D0ED1DE808AA
:10036000C000083002908AE709E02D1D029586E75B
:1003700062683046A1689047206A401C7EE7206A88
:10038000FEBD000030B5441C03E00178401C00298C
:100390000DD08107F9D10B4BDD0104C8D11A91436F
:1003A0002940FAD0001B0A0603D0C01E30BD001B36
:1003B00030BD0A0401D0801E30BD0902FCD0401EB1
:1003C00030BD000001010101002203098B4273D3FB
:1003D000030A8B4258D3030B8B423CD3030C8B4252
:1003E00021D312E003460B437FD4002243088B4203
:1003F00074D303098B425FD3030A8B4244D3030BAC
:100400008B4228D3030C8B420DD30902FF2212BA70
:10041000030C8B4202D31212090265D0030B8B42EC
:1004200019D300E0090AC30B8B4201D3CB03C01AD6
:100430005241830B8B4201D38B03C01A5241430BB1
:100440008B4201D34B03C01A5241030B8B4201D3A1
:100450000B03C01A5241C30A8B4201D3CB02C01A0C
:100460005241830A8B4201D38B02C01A5241430A84
:100470008B4201D34B02C01A5241030A8B4201D373
:100480000B02C01A5241CDD2C3098B4201D3CB011A
:10049000C01A524183098B4201D38B01C01A5241C9
:1004A00043098B4201D34B01C01A524103098B42CD
:1004B00001D30B01C01A5241C3088B4201D3CB00B8
:1004C000C01A524183088B4201D38B00C01A52419B
:1004D00043088B4201D34B00C01A5241411A00D24B
:1004E00001465241104670475DE0CA0F00D04942B4
:1004F000031000D3404253409C46002203098B4224
:100500002DD3030A8B4212D38901FC2212BA030AAB
:100510008B420CD3890192118B4208D3890192112D
:100520008B4204D389013AD0921100E08909C309B2
:100530008B4201D3CB01C01A524183098B4201D3B4
:100540008B01C01A524143098B4201D34B01C01A9F
:10055000524103098B4201D30B01C01A5241C30817
:100560008B4201D3CB00C01A524183088B4201D386
:100570008B00C01A5241D9D243088B4201D34B00A1
:10058000C01A5241411A00D20146524110466346F8
:100590005B1001D34042002B00D5494270476346AF
:1005A0005B1000D3404201B50449002802DC491C1D
:1005B000084000E00846C046C04602BDFFFFFF7F7E
:1005C00070477047704700000246C80FC00781435C
:1005D0004B0030B54B405B009B0D20D01923DB0650
:1005E000C91801231B05994220DB0324A407042515
:1005F0001346AB400BD3002B04D1EB0613409B00FA
:10060000E34204D401246407002312195941FF2353
:100610001B0599420BD2C9000143500F09E0CB02E0
:1006200004D501430803024305D0054830BDFF212E
:10063000C905084330BD084607210905884330BD78
:100640000000C07FF0B5F94D0C091E092C402E406A
:100650002F468BB0A7437DD0B543FCD0002E7AD077
:10066000002CFCD00D465D40ED0F2543AC1BFF2553
:10067000AD0464190894C502440DC9022143500D0C
:10068000DC0204430120C00701430443D20201916C
:10069000200C110C00958C46010423468B430A91D3
:1006A00061460904E24D8A430991010A7D444919D2
:1006B0008039097805464D4301266D18F605751BEE
:1006C0006943C90C640B891C4C436418B5012C1B8D
:1006D000250C2E04B4434C434D43210C6918890961
:1006E0000591009DE90701D00121C90704912C461D
:1006F00001996708CD072F434C08059DE10B4D4339
:100700002D0C29466646754302950D4645432E46F7
:10071000029D7D1BB44100950D465D4301942C0C58
:100720002F040D465543AE462D0C3D4302950394D0
:100730007546049C2D04641B049406D2029C039D00
:10074000641C002675410395029401AC70CC009F97
:100750007D1B01E03EE162E1B4410904009507918F
:1007600001940599A4086143090C0C464443650BA8
:10077000E7040C4666467443A646640B3C43039567
:1007800002947446049DE4042C1B049406D2029C3B
:10079000039D641C002675410395029401AC70CC46
:1007A000009F7D1BB44101940C465C430095650F8E
:1007B000E7000C465443A646640F3C43039502945D
:1007C0007446049DE4002C1B049406D2029C039DF5
:1007D000641C002675410395029401AC70CC009F07
:1007E0007D1BB441AE09AF06049DC900AD092F437E
:1007F000049DA406AD060495079D3443691807912E
:10080000059DE10B4D432D0C294666467543029527
:100810000D4645432E46029D7D1BB44100950D4675
:100820005D4301942C0C2F040D465543AE462D0C10
:100830003D43029503947546049C2D04641B049467
:1008400006D2029C039D641C002675410395029408
:1008500001AC70CC009F7D1BB44101948C050694C3
:10086000079C890A611800950791019C0599A408C5
:100870006143090C0D464543680BEF040D46644681
:1008800065436C0B3C43049FED047D1BAC4602D2D8
:100890000025641C6841009E019D371B8541084668
:1008A000584301950C46460FC5005443600F28433A
:1008B0006546E4002C1B02D20025401C6E41019DC0
:1008C0003F1AB5412846BD09800628438446A00941
:1008D000BF064E020699A40676180743079D00201E
:1008E00068410A99079019430020099B00906046CF
:1008F000FF1913434041E20F64003A43A446044603
:10090000D71A8C41A04203D90120009020463A46D4
:10091000C70F941840416246D20F224364466400D8
:100920000494009CBE466400D71AA446044602976D
:100930008C417746002F01D1A04204D96046401C6B
:100940008446029A2046C40FA64694184041049A51
:100950000546D20F224364466400D31A8D41714686
:10096000002901D1A84202D928461A46641C104326
:100970000122002800D0164361020020079B89193C
:1009800004465C410223002C02DB491813466441F3
:10099000089DCE0A2D145D194B056705E10A2C054B
:1009A0000D1908993E43C9076940002B08D09340B0
:1009B00006D30022761C5141002B01D17608760027
:1009C0001C4A002D43DB154241D0AA433FD030469C
:1009D0000BB0F0BD06180D464D41174C7642AC41A8
:1009E0001AD395181C465C41134A6D42A24113D399
:1009F000012252054C00D4420AD15C00D4420BD0F3
:100A00004B4002D592021143E2E749004908DFE773
:100A10005940C90FC90718E000200849D8E7054820
:100A200001420DD10342F7D0F2E700000000FF07BA
:100A3000541E00000000F07F0000E0FF0000F87F7F
:100A4000114859400143C01241400020C0E7012332
:100A5000089A9B069A4205DC032252078918C90F9F
:100A6000C907B5E7052252078918074A1143D21270
:100A70005140ADE770B515461C4602460B46284668
:100A80002146FFF7DFFD70BDFFFFFF7F1F22030C34
:100A900002D10F22000402D0030E03D004E0002094
:100AA000014670470002083A030F01D10001121FEE
:100AB000830F01D18000921E002801DB4000521EEE
:100AC000120551184205C012411810467047C10F57
:100AD000C90700D04042012292071143D6E7012105
:100AE0008907D3E70121C9050123411842001B06EC
:100AF000D3185B0E0AD0C1100722D206891840070E
:100B00005242D14201D5520089187047090208D5D6
:100B10000146002A03D0C10FC907002070471046C4
:100B20007047420202D000200249704707210905A0
:100B30000143F4E70000F87FFFB504460D4681B09D
:100B4000243000902168880604D51022E069914382
:100B5000216000E00120A84201DD471B00E00027E2
:100B60000498A1697A191018081AA0612078C006A3
:100B700002D42046C046C046002608E003986268BA
:100B8000A168805D9047206A401C761C2062049812
:100B90008642F3DB2078C0060AD52046C046C04610
:100BA00006E06268A16830209047206A401C2062FD
:100BB00038467F1E0028F4DC07E000986268A168D0
:100BC000405D9047206A401C206228466D1E002828
:100BD000F3DC2046C046C0462078000602D502203D
:100BE00005B0F0BD0120FBE7FFB50C461E468FB0F7
:100BF00003CA089009914F007D0D00D16D1E0021A0
:100C000008460020C0460321099A89050840002AA9
:100C100003DA8200801840080840800D01280A90FD
:100C200002DD0020C0430A90089807430DD0F04829
:100C3000F049281848430714189800281DD0754219
:100C4000291E1DDD0A9842421BE01898012802D097
:100C50000020302104E00020F24305E02154401C34
:100C6000B042FBDB30460022189B002121540F9933
:100C70008B600A60486013B0F0BDBD1B6D1CDFE7E0
:100C80000A9A002900DA69420BA800F06FFA0BAB50
:100C900007CB03AB07C30899099800F0D3FA6B465A
:100CA00007C30146D4480918002D00910BDDD24935
:100CB00003980A9A49424018002303A90390684602
:100CC00000F030FD08E003990A9A0023081803A9F0
:100CD0000390684600F0D0FC6B4607C30004000C8C
:100CE00003D00020C043410800E01046189A002AB3
:100CF00003D00022009215461EE0751E05D400F0B8
:100D0000B3F9303262556D1EF9D5012208430796BA
:100D100002D000227F1C04E02078302801D100227C
:100D20007F1E002A069787D01EE0112D07DA00F0FB
:100D30009BF9303262556D1C02460A43F5D10843D7
:100D400003D00098002819D00EE00021681E05E0AD
:100D5000235C625C63542254401E491C8142F7DBD1
:100D6000A81B401E07950690079A18990020A054CA
:100D70000F98079B069A81600CC07CE71126002023
:100D8000189059E7D21DF0B50D460446D10893B02E
:100D9000C90003C90C900D9101F078FB02460D9833
:100DA000C00F01D02D2007E02068810701D52B203E
:100DB00002E04007C00F4001032A0F9001D0072A2C
:100DC00005DB03462946204600F08CF90EE1207829
:100DD000800601D5E76900E006272846652D04D086
:100DE000662814D0672D69D12DE00020112F0090C6
:100DF00001DB112300E07B1C0CAA03A910A8FFF75C
:100E0000F3FE1199002610987D1C0E9142E00120FE
:100E10003B460CAAC0070B900120009003A910A824
:100E2000FFF7E2FE119D12981099002600280E95FA
:100E300001D1781C0D18781B02D446427D1C761E09
:100E4000E81B00903AE0012F00DA01270020112F63
:100E5000009001DD112300E03B460CAA03A910A875
:100E6000FFF7C2FE11993D46109800260E91217899
:100E700009070BD40E99A94200DA0D4603A9012DEA
:100E800004DD4A19203AD27F302A06D0B84201DA6E
:100E9000011D04DA012100910FE06D1EEFE700282B
:100EA00002DC86192D1A03E0411CA94200DD0D4623
:100EB000801B401C00900120C0070B902078000789
:100EC00005D40098A84202DB0020C0430090694688
:100ED0000020C8720B98012102AF0337C90788426E
:100EE00025D0022010902B2011900B9800280BDAAF
:100EF00040420B902D20119006E00B9800F09BF8DB
:100F000030317F1E0B9039701099481E00291090C7
:100F1000F3DC0B980028F0D111987F1E38702088E0
:100F2000000501D5452000E065207F1E387001A82E
:100F3000C01BC01D0B900F98002800D00120411944
:100F40000098C01709180B980818A169081A401EC4
:100F5000A0612078C00602D42046C046C0460F9843
:100F6000002805D06268A1689047206A401C206272
:100F70002078C00625D52046C046C04621E0002E78
:100F800007DB0E98B04204DD03A86268805DA168AB
:100F900002E06268A16830209047206A761C401CFD
:100FA00020620098401E002800900AD100F058F8F6
:100FB000C06862680168405CA1689047206A401C74
:100FC000206228466D1E0028D9DC07E06268387868
:100FD000A1687F1C9047206A401C20620B99481E24
:100FE00000290B90F2DC2046C046C046032042E6B2
:100FF00001FCFFFF104D0000E1DFFFFF01694A1C0B
:1010000002610878704700B58FB002910021059108
:101010000549019379440391114604906846FFF70E
:1010200029F90FB000BD0000E5FFFFFF0A6810704E
:10103000521C0A60704701468008081A02091018FD
:10104000020A1018020C1018C00882001218520070
:10105000891A01E0401C0A390A29FBD270470000B6
:1010600000487047280000200B4670B502468907EB
:101070008008084319469D08141AA9412509080744
:10108000054308092C194841250A01060D43010AA8
:101090002C194141200C0D0428430D0C00194D4121
:1010A000002140194D41C00869070843E908840F31
:1010B0008D002543840024184D4124196D41121BD5
:1010C000AB4107E00925ED432C115219634100247F
:1010D000401C61411C460A250026551BB441F1D233
:1010E00070BD0000F8B51F46044601230068DB020E
:1010F000032601461840072A05DB002801D017A562
:1011000006E017A504E0002801D016A500E016A50A
:10111000102081432160A069C01E002FA06101D072
:10112000401EA0612046C046C046002F09D0384668
:101130006268A1689047206A401C2062C01C20623F
:1011400006E0206AFAE762682878A1686D1C90477B
:10115000761EF8D22046C046C046F8BD4E414E002D
:101160006E616E00494E4600696E6600F7B5164620
:101170008AB0334878446C4603467C33C06F5A6863
:101180009B680DC42E487844763003AC0DC80DC45E
:101190003720C001081837211B30FFF723F9054617
:1011A0000C46803D1B3C02D56442012000E000203B
:1011B0000027099010E0E0070CD00C20204978436C
:1011C000794432464C3941186846012300F054FAFC
:1011D0006B4607C364107F1C002CECD1184F7F4472
:1011E0002E3F16E0E80712D02001C0190EC8069164
:1011F000089307920068F04201D19819089032468E
:10120000012306A903A800F037FA03AB07C36D104A
:10121000641C002DE6D10998002806D032466946A4
:10122000012303A800F07EFA05E001233246694657
:1012300003A800F021FA0A9B07C30DB0F0BD00001F
:101240000C140000034640000A4610B5400D0BD0B8
:101250000121C9070F24A40200191C0364082143BB
:10126000540D2143D20207E000210120F2E7D40F00
:10127000490021435200401E0029F8DADB0FDB074A
:10128000184310BDFFB50D46144685B04868516837
:1012900001F0E3F800910190A868A16801F0DDF881
:1012A00002910390A868616801F0D7F8029A1218B9
:1012B0008242029201D2012000E00020019A0B1824
:1012C000D2180028019202D08A4202D903E08A4251
:1012D00001D2012000E00020009908180090686801
:1012E000A16801F0BAF8029A12188242029201D261
:1012F000012000E00020019A0B18D218002801926A
:1013000002D08A4202D903E08A4201D2012000E0E1
:1013100000200099081800902868216840004900C2
:10132000400849084018FA49471814E0019940005C
:10133000C90F08430090019802994000C90F084363
:101340000190029803994000C90F08430290039846
:1013500040007F1E039000980028E7DA08980028D4
:1013600001D0EC4E00E00026B74201DA012000E097
:101370000020002804902AD0F71BF806C00E15D0D4
:10138000029B2021091A039A8B401A430392029A66
:10139000019BC2408B401A430292019A009BC240BB
:1013A0008B4000991A430192C14000917B110DD0EE
:1013B0006F460320C11A03D500218200B95003E013
:1013C0008A008100BA587A50401EF3D537460398F8
:1013D0000299002800D001200143089802910028BA
:1013E00008460CD0002800D001200199019A490537
:1013F00008430121D20AC902D202019200E0012170
:101400000E9B0122D207012B02D0002B03D013E048
:10141000002807D120E0904204D890420CD1019BD3
:101420000B4209D0019B5918019105D10099491C23
:10143000009101D17F1C009200280DD01021084698
:101440000020C0460498002806D00F98002803D03A
:10145000082108460020C04628682168019B009AA0
:101460004840C10F0598C90739430EC009B0F0BD07
:10147000FFB587B0099A0898089953689268406840
:10148000896896460022039317469446089A126884
:101490005300099A5B081268520052089A1A9E4B30
:1014A000D4180A9A002A01D0352200E04022069280
:1014B0000022012315460492DB07059324E0002D4A
:1014C00005D175460346039E4D1BB34109D37546AE
:1014D0006646039B491B049D9841059B7519AC46C4
:1014E0005F4163463B4308D0059B049EDD077608B9
:1014F0002E435B080496059301E0521E641EC50F3F
:10150000ED0749184041521C069B9A42D7DB002D3B
:1015100004D17546039A6B1A824101D203200CE074
:10152000039A0B466B404240134303D0014303D060
:10153000012002E0022000E000206146019100212C
:10154000009702910A99002905D0614640020143A3
:10155000704B019102E08007002302909C4201DA67
:10156000012000E0002007003AD01A1BD006C00E70
:1015700015D0029D2021019C091AC5408C402543AD
:10158000029C8C4000D001242543019C0295009DC3
:10159000C4408D4000992C430194C14000915411E6
:1015A0001DD06D460221002202290CD10320001B10
:1015B00007E0002804DB8600AE59002E00D001228F
:1015C000401C0328F5DB081B02D588002A5004E0E4
:1015D0008000285810438A00A850491EE3D51C46B5
:1015E0000A98002802980CD0002800D00120019908
:1015F000019A490508430121D20AC902D202019287
:1016000000E00121109B0122D207012B02D0002B08
:1016100003D013E0002807D11FE0904204D8904285
:101620000CD1019B0B4209D0019B5918019105D1A6
:101630000099491C009101D1641C009200280CD033
:10164000102108460020C046002F06D0119800281F
:1016500003D0082108460020C04608980999019A3D
:10166000009B006809684840C10F0798C9072143DB
:1016700082600AC00BB0F0BD00B585B00193009246
:101680000A460146002302A8FFF7FCFD02A807C88E
:1016900005B000BDFFB50A461F4685B00799019306
:1016A00001230091014602A8FFF7ECFD029903987F
:1016B000049ECA0F4900D20700920F2249089202E5
:1016C0008C1A0021002800DB0C46450013486D08E9
:1016D000844214D3079A002A04DA441E0026104DCF
:1016E000F64302E004460D460E461021084600204F
:1016F000C046002F03D0042108460020C046200524
:10170000E90A0843009908436905F20A1143ADE666
:1017100002C0FFFF013C0000FF3F0000FF07000088
:10172000FFFFFF7F00B585B0019300920A46014696
:10173000002302A8FFF79CFE02A807C8A8E7FFB590
:101740000A461F4685B0079901930123009101467F
:1017500002A8FFF78DFE02990398049ECA0F490064
:10176000D20700920F22490892028C1A0021002809
:1017700000DB0C46450011486D08844214D3079ADB
:10178000002A04DA441E00260D4DF64302E004460A
:101790000D460E46102108460020C046002F03D0FB
:1017A000042108460020C0462005E90A08430099A4
:1017B00008436905F20A114358E60000FF070000DC
:1017C000FFFFFF7F00487047080000207546FFF7C5
:1017D000F9FFAE46050069465346C008C00085467D
:1017E00018B020B5FEF7EAFC60BCB646002600271C
:1017F000C0C5C0C5C0C5C0C5C0C5C0C5C0C5C0C5C1
:10180000403D490849008D46704710B50446C04622
:10181000C0462046FEF7C2FC10BD000082078B07C1
:101820009A423FD170B5920F0AD0032402780B7808
:10183000401C491C002A33D09A4231D12042F5D1B4
:10184000214EF40104C808C9951B9543254018D1C1
:101850009A420FD104C808C9951B9543254010D161
:101860009A4207D104C808C9951B9543254008D161
:101870009A42E7D012BA1BBA01209A4200D24042E3
:1018800070BD12BA1BBA2DBA18241000E04019001E
:10189000E140401A05D12E00E64002D1083CF4D1C7
:1018A000D01A70BD02780B78401C491C002A09D060
:1018B0009A4207D102780B78401C491C002A01D0BB
:1018C0009A42EFD0D01A7047010101010149182056
:1018D000ABBEFEE72600020070470000F0B583B003
:1018E000AF480168890708D40168890705D40168F1
:1018F000890702D401688907F3D5AA4A0023136037
:101900001168272908D81168272905D811682729BF
:1019100002D811682829F3D3016802910168890768
:1019200012D5016889070FD5016889070CD50168B0
:101930008907F3D408E00168890708D4016889079A
:1019400005D40168890702D401688907F3D51360BB
:101950001168272908D81168272905D8116827296F
:1019600002D811682829F3D3016801910168890719
:1019700012D5016889070FD5016889070CD5016860
:101980008907F3D408E00168890708D4016889074A
:1019900005D40168890702D401688907F3D513606B
:1019A0001168272908D81168272905D8116827291F
:1019B00002D811682829F3D30168009101688907CA
:1019C00012D5016889070FD5016889070CD5016810
:1019D0008907F3D408E00168890708D401688907FA
:1019E00005D40168890702D401688907F3D513601B
:1019F0001168272908D81168272905D811682729CF
:101A000002D811682829F3D306680168890712D51E
:101A1000016889070FD5016889070CD50168890716
:101A2000F3D408E00168890708D40168890705D460
:101A30000168890702D401688907F3D5136011682A
:101A4000272908D81168272905D81168272902D81D
:101A500011682829F3D307680168890712D501683E
:101A600089070FD5016889070CD501688907F3D468
:101A700008E00168890708D40168890705D401686E
:101A8000890702D401688907F3D5136011682729F3
:101A900008D81168272905D81168272902D81168A4
:101AA0002829F3D301680468A40712D50468A407A1
:101AB0000FD50468A4070CD50468A407F3D408E084
:101AC0000468A40708D40468A40705D40468A4071C
:101AD00002D40468A407F3D513601468272C08D82F
:101AE0001468272C05D81468272C02D81468282CD1
:101AF000F3D304680568AD0712D50568AD070FD5A7
:101B00000568AD070CD50568AD07F3D408E0056896
:101B1000AD0708D40568AD0705D40568AD0702D444
:101B20000568AD07F3D513601368272B08D8136831
:101B3000272B05D81368272B02D81368282BF3D33B
:101B4000026803689B0708D503689B0705D50368EF
:101B50009B0702D503689B07F3D40098000120235C
:101B60000340019840014025054002984008C0010B
:101B70004019C018F30010251D404019BB0008256E
:101B80001D404019490004230B40C01802210C409D
:101B900000199107C90F0143C8B203B0F0BDC04698
:101BA00010000050241000400248C168491CC16068
:101BB0007047C04668000020704700000948006870
:101BC00014490870C1B264204843134A8018134A6C
:101BD00010601348312902D0302902D11030402141
:101BE00001607047243801400948006809490870BD
:101BF000C1B264204843084A8018084A1060084867
:101C0000312902D0302902D11030402101607047C3
:101C1000244400408000002040EDFFFF38000040D9
:101C2000180000509AB0CC4908680126304308607B
:101C3000B50700242C60C94F3868C94900F012FB71
:101C4000401EA862C748E8626E61286830430C9560
:101C50002860C14D286810210B910843286038681E
:101C6000BF4900F0FFFA401EBF494860BD48886088
:101C7000084624380168314301607D200E90C10080
:101C8000386800F0EFFA401EB849486006948C604E
:101C900007200A9008602A460C3D286830432860D7
:101CA0007004116801431160B003121F1092116893
:101CB00001431160052003071868AD490140196010
:101CC0001868AC490143196003200D908002D9685F
:101CD0008143D96011208002196A01431962FF20F3
:101CE0000001596A814359624B2001010891703902
:101CF0005A6A0A4311935A62C4013868214600F0B7
:101D0000B1FA9D4F39461039086038461C382D21EC
:101D10000F910160F00699490860904800682146DB
:101D200000F0A0FA964C21461039086020461C3875
:101D30000F99016030079149086028683043049585
:101D400028600E98820010460C30109B19680143E1
:101D5000196081483838016809963143016001688B
:101D6000490708D40168490705D40168490702D426
:101D700001684907F3D5119908680D9B184308605D
:101D8000C8689843C8607F4B1868C00700D03DE220
:101D90000998C0071968014319601868002808D518
:101DA0001868002805D51868002802D5186800288A
:101DB000F3D407921868099908431860194608393E
:101DC0000868C00708D10868C00705D10868C007BF
:101DD00002D10868C007F1D00591099E1E62D8683B
:101DE000042110910843D860049A106802210F91D1
:101DF0000843106058490868304308606248016829
:101E0000C022914301600168802203921143016066
:101E10000F210903026A8A4302627103026A0A43BC
:101E200002624E4800684E4900F01CFA401E0C9DAC
:101E3000A862089A1046C938E8620798A8630A9809
:101E40000003A9698143A9610D984003A969014371
:101E5000A9610E98030118463030A9690143A961B0
:101E6000286A0B9908432862286803990843286068
:101E70006869304368612868304316461A4628600E
:101E80002020119B0E909862EC4904920D460C2084
:101E9000C24399681140996059680F98814359600D
:101EA000D9680D921140D9601968109A114308221F
:101EB000914319609862069ADE4802600168B14257
:101EC00008D20168B14205D20168B14202D201686C
:101ED000B142F3D30F999961026006463168132924
:101EE00008D83168132905D83168132902D8316818
:101EF0001429F3D3D9680D980140D96019680140BD
:101F00001960D9680140D9601968014019603260D0
:101F10003068272808D83068272805D8306827284F
:101F200002D830682828F3D31869800710462ED4C9
:101F30000020306031684F2908D831684F2905D812
:101F400031684F2902D831685029F3D319698907BC
:101F50001CD509981BE0C046381002400000002044
:101F600040420F00FFFF00002410004010E000E09E
:101F70000FC3C3FFA01428001C38014000E100E09B
:101F80001C4400400824014000040050C04319696B
:101F9000890708D51969890705D51969890702D5FF
:101FA00019698907F3D42870FFF798FC6870FFF768
:101FB00095FCA870FFF792FCE870FFF78FFC287182
:101FC000FFF78CFCE880A8780D9068780B902A7950
:101FD000EB78994E366810980643974806601B02C6
:101FE00098180C9028810B9801020D9808186881A8
:101FF00080B2FEF774FD00263246914BFEF722FBBD
:10200000FEF7E2FA0D908D4948610C9880B2FEF718
:1020100066FD32468A4BFEF715FBFEF7D5FA014600
:1020200086480C91016105990868400708D4086842
:10203000400705D40868400702D408684007F3D574
:102040000D98FEF74FFD0D900B917B48806B0A9029
:102050000C98FEF747FD02460B460A9880B20D9990
:1020600000910B990191029012A876A1FEF7B8F8A1
:1020700011980E9981616F490E600868132808D87D
:102080000868132805D80868132802D80868142897
:10209000F3D312A8FEF776F9002805D0012853D112
:1020A0000999084000D091E02068400608D42068D3
:1020B000400605D42068400602D420684006F3D5C7
:1020C00000205C490860119B089E079A0868312827
:1020D00008D80868312805D80868312802D8086867
:1020E0003228F3D30E9898625448C068E968091AF8
:1020F000914229460ED2E968091A9142294609D22D
:10210000E968091A9142294604D2E968091A9142FC
:102110002946EBD3C868049AE968091A914229460E
:1021200000D3B3E6E968091A9142294600D3ADE627
:10213000E968091A9142294600D3A7E6E968091A15
:1021400091422946E8D3A1E60146099A9143002627
:1021500002E0B61C8E42A3D012AA925DE260236810
:102160001B0608D423681B0605D423681B0602D46B
:1021700023681B06F3D5FA603A68120608D43A6859
:10218000120605D43A68120602D43A681206F3D54C
:1021900012AA92195278E26023681B0608D42368B9
:1021A0001B0605D423681B0602D423681B06F3D53F
:1021B000FA603A681206CCD43A681206C9D43A6872
:1021C0001206C6D43A681206F3D5C2E712A8805D9B
:1021D000E0602168090608D42168090605D4216851
:1021E000090602D421680906F3D5F86038680006AC
:1021F00000D559E73868000600D555E7386800066D
:1022000000D551E738680006F0D54DE7186802217F
:10221000014319601868C00700D1B9E51868C00704
:1022200000D1B5E51868C00700D1B1E51868C0074E
:10223000F0D1ADE5241000400824014068000020E2
:102240000000244054454D503D252E31663B20482A
:10225000554D493D252E31663B204144433D257572
:102260000D0A000043088B421AD3002203098B4257
:1022700079D3030A8B425ED3030B8B4242D3030C08
:102280008B4227D30902FF2212BA030C8B4202D3DE
:102290001212090203D0030B8B4233D31AE0D3E0AE
:1022A000411A8041401C704703460B4371D44308D8
:1022B0008B42F5D3002203098B4254D3030A8B428D
:1022C00039D3030B8B421DD3030C8B4202D39446AC
:1022D0006EE0090AC30B8B4201D3CB03C01A5241F3
:1022E000830B8B4201D38B03C01A5241430B8B42A9
:1022F00001D34B03C01A5241030B8B4201D30B0392
:10230000C01A5241C30A8B4201D3CB02C01A5241B8
:10231000830A8B4201D38B02C01A5241430A8B427B
:1023200001D34B02C01A5241030A8B4201D30B0264
:10233000C01A5241CDD2C3098B4201D3CB01C01A7E
:10234000524183098B4201D38B01C01A5241430988
:102350008B4201D34B01C01A524103098B4201D376
:102360000B01C01A5241C3088B4201D3CB00C01AE3
:10237000524183088B4201D38B00C01A524143085B
:102380008B4201D34B00C01A5241411A52411000F6
:102390007047CA0F00D04942031000D34042534057
:1023A00000229C4603098B422DD3030A8B4212D391
:1023B0008901FC2212BA030A8B420CD389019211C3
:1023C0008B4208D3890192118B4204D3890137D003
:1023D000921100E08909C3098B4201D3CB01C01AD5
:1023E000524183098B4201D38B01C01A52414309E8
:1023F0008B4201D34B01C01A524103098B4201D3D6
:102400000B01C01A5241C3088B4201D3CB00C01A42
:10241000524183088B4201D38B00C01A5241D9D25A
:1024200043088B4201D34B00C01A5241411A00D2DB
:1024300001465241104663465B1000D3404270474C
:1024400063465B1000D3404201B50021004201D039
:10245000C9430846C046C04602BDF8B5040C8BB25D
:10246000264682B25E43104658430D0C370C3604A4
:1024700000218019164679416E43370C36048019C5
:10248000264679416E438919F8BD00004900CA0209
:102490000243100000D004204A0D01D00122104355
:1024A000044A490D914201D102210843012800D17B
:1024B00005207047FF07000030380A2801D20120AC
:1024C000704700207047000010B500290AD0087836
:1024D000002807D005487844FFF7A0F9002801D06C
:1024E000002010BD0248784410BD000062010000C9
:1024F0005A01000003B402487844844603BC604794
:1025000089E8FFFF80807F7E7D7C7B7A7978777693
:1025100076757473727171706F6E6E6D6C6C6B6AC0
:102520006A6968686766666564646363626161605E
:10253000605F5F5E5E5D5D5C5C5B5B5A5A595958DB
:102540005857575656555555545453535252525145
:10255000515050504F4F4F4E4E4D4D4D4C4C4C4B9B
:102560004B4B4A4A4A4949494848484747474746E2
:10257000464645454544444444434343434242421E
:102580004241414102400000000000A00000000064
:1025900005400000000000C8000000000C400000E2
:1025A0000000409C00000000194000000020BCBE5C
:1025B0000000000034400000BFC91B8E0000000472
:1025C000B5400000504BCFD06607E2CF01000000BD
:1025D0006C4100003E8251AADFEEA73401000000EA
:1025E000D9420000DCB5A0E23A301F97FFFFFFFFA1
:1025F000B4450000FD25A0C8E9A3C14FFFFFFFFFC0
:10260000FF3F00000000008000000000FF3F0000CE
:102610000000008000000000582600080000002094
:10262000080000001C0100086026000808000020C7
:10263000800600003C0100081C0000004300000070
:10264000F8FFFFFF0C0000000E0000000F0000006C
:102650002E0000000000000000002000000000002C
:04000005080000C12E
:00000001FF
